:020000040800F2
:1000000010080020B50100080D02000805020008D4
:1000100009020008FD010008690300080000000053
:1000200000000000000000000000000015020008B1
:10003000010200080000000011020008750200081B
:10004000CF010008CF010008CF010008CF01000850
:10005000CF010008CF010008CF010008CF01000840
:10006000CF010008CF010008CF010008CF01000830
:10007000CF010008CF010008CF010008CF01000820
:10008000CF010008CF010008CF010008CF01000810
:10009000CF010008CF010008CF010008CF01000800
:1000A000CF010008CF010008CF010008CF010008F0
:1000B000CF010008CF010008CF010008CF010008E0
:1000C000CF010008CF010008CF010008CF010008D0
:1000D000CF010008CF010008CF010008CF010008C0
:1000E000CF010008CF010008CF010008CF010008B0
:1000F000CF010008CF010008CF0100080000000078
:10010000CF01000800000000CF010008CF01000867
:10011000CF010008CF010008CF010008CF0100087F
:10012000CF010008CF010008CF010008CF0100086F
:10013000CF010008CF010008CF010008CF0100085F
:10014000CF010008CF010008CF010008CF0100084F
:1001500000000000CF010008CF010008CF01000817
:10016000CF010008CF010008CF010008CF0100082F
:10017000CF010008CF010008CF010008CF0100081F
:10018000CF010008CF010008CF010008CF0100080F
:10019000CF010008CF010008CF010008CF010008FF
:1001A000DFF80CD000F018F80048004739060008C6
:1001B000100800200648804706480047FEE7FEE793
:1001C000FEE7FEE7FEE7FEE7FEE7FEE7FEE7FEE707
:1001D0007D020008A1010008064C074D06E0E0681A
:1001E00040F0010394E8070098471034AC42F6D37E
:1001F000FFF7DAFF94090008B4090008FFE7FEE7FB
:10020000FFE7FEE7FFE7FEE7FFE7FEE7FFE7FEE7C2
:10021000FFE7FEE7FFE7FEE780B584B00146029006
:1002200002980138B0F1807F019103D3FFE70120EC
:1002300003901BE0029801384EF21401CEF2000147
:1002400008604FF0FF300F2100F090F84EF21800D8
:10025000CEF20000002101604EF21000CEF200004C
:100260004FF0070EC0F800E00391FFE7039804B0D9
:1002700080BD000080B500F0B5F880BD80B582B0CB
:100280004EF68850CEF20000016841F47001016022
:1002900041F20000C4F20200016841F00101016076
:1002A000FFE741F20000C4F2020000688007002866
:1002B00001D4FFE7F5E7FFE741F20400C4F20200D2
:1002C000016841F08001016000200190FFE7019882
:1002D000FF2805D8FFE7FFE7019801300190F6E716
:1002E00041F20400C4F20200016841F09001016093
:1002F00000200190FFE70198FF2805D8FFE7FFE7FE
:10030000019801300190F6E7FFE741F20400C4F2E2
:100310000200016821F00301016041F20001C4F212
:1003200002010A684FF6FF73CEF6F6231A400A6000
:1003300041F20802C4F202024FF47F03136000226C
:10034000026041F22C00C4F202000260086820F44E
:1003500080200860009200F0EBFA4FF000600099F6
:1003600000F0CEF902B080BDFFE7FEE784B00A4698
:1003700003468DF80F0002919DF90F0000280192AD
:1003800000930ADBFFE7029800019DF90F104EF27F
:100390000042CEF2000288540BE0029800019DF862
:1003A0000F1001F00F014EF61452CEF200028854E5
:1003B000FFE704B07047000082B001460190019849
:1003C00040F20802C2F2000210600091FFE740F222
:1003D0000800C2F200000068002801D0FFE7F6E73D
:1003E00002B0704740F20800C2F200000068002826
:1003F00008D0FFE740F20800C2F2000001680139AE
:100400000160FFE77047000084B00A46034603908E
:1004100002910298039948610192009304B07047D9
:1004200080B586B013468C468646059004918DF8BB
:100430000F209DF80F0000280293CDF804C0CDF8DE
:1004400000E004D0FFE704980599086103E00498F0
:1004500005994861FFE706B080BD0000B0B58BB0DC
:100460009C4696460C4605460A90099108920793C9
:10047000002005900490099800F00F00059009985D
:10048000C0060028CDF80CC0CDF808E00194009516
:1004900014D5FFE7089804280AD1FFE7059840F033
:1004A0000300059007980A99CA6B1043C86304E0DB
:1004B0000898059908430590FFE7FFE70020ADF88D
:1004C0001A00FFE7BDF81A00072846D8FFE7BDF875
:1004D0001A00012101FA00F00799084236D0FFE71F
:1004E0000A9800680490BDF81A0080000F2101FAF4
:1004F00000F0049921EA000004900598BDF81A1054
:1005000089008840049908430490099828280AD152
:10051000FFE7BDF81A00012101FA00F00799084031
:100520000A9948610EE0099848280AD1FFE7BDF80A
:100530001A00012101FA00F0079908400A990861A0
:10054000FFE7FFE704980A990860FFE7FFE7BDF8B7
:100550001A000130ADF81A00B4E70820ADF81A000F
:10056000FFE7BDF81A000F284AD8FFE7BDF81A00C8
:10057000012101FA00F0079908423AD0FFE70A98F2
:1005800040680490BDF81A006FF01F0101EB800075
:100590000F2202FA00F0049A22EA00000490059863
:1005A000BDF81A2001EB82018840049908430490A9
:1005B000099828280AD1FFE7BDF81A00012101FA9D
:1005C00000F0079908400A9948610EE00998482808
:1005D0000AD1FFE7BDF81A00012101FA00F00799DE
:1005E00008400A990861FFE7FFE704980A99486004
:1005F000FFE7FFE7BDF81A000130ADF81A00B0E7D9
:100600000BB0B0BD85B00A46034603900291039833
:100610008068029908420192009304D0FFE701200C
:100620008DF8130003E000208DF81300FFE79DF81C
:10063000130005B07047000080B586B0002005901B
:1006400000F07AF94FF4C16000F074F842F2000053
:10065000C4F2010010214FF0030E4FF40062049029
:1006600003927246039BCDF808E0FFF7F7FE04986B
:100670000399FFF7C9FE40F2026000F05BF840F614
:100680000000C4F2010004210123029AFFF7E6FEF4
:10069000FFE740F60000C4F201000121FFF7B2FFBE
:1006A00000282CD1FFE76420FFF786FE40F600000B
:1006B000C4F201000121FFF7A5FF002812D1FFE7D6
:1006C00042F20000C4F201004FF400610190009179
:1006D000FFF798FFC0F10100C2B201980099FFF73F
:1006E0009FFEFFE7FFE740F60000C4F20100012192
:1006F000FFF788FF002801D1FFE7F4E7FFE7C8E72D
:1007000084B00A46034603900291039802994FF67B
:10071000807CC1F6FF7C01EA0C0108434EF60851CB
:10072000CEF200010860BFF34F8F0192009304B036
:100730007047000082B00146ADF80600BDF8060023
:1007400000F01F02012303FA02F2800941F20003C4
:10075000C4F2020350F803C042EA0C02C2500091F6
:1007600002B0704784B000200390029041F2000173
:10077000C4F202010A6842F480320A600190FFE785
:1007800001980021B1EB103F05D1FFE7FFE7019889
:1007900001300190F4E7FFE703980130039041F244
:1007A0000000C4F20200006800F400300290FFE78D
:1007B000029800210028009108D1FFE703984FF626
:1007C000FF71401A18BF01200090FFE70098C00792
:1007D0000028E1D1FFE741F20000C4F20200006806
:1007E0008003002802D4FFE7FFE7FEE742F20000A3
:1007F000C4F202000168042262F30201016041F2C6
:100800001C00C4F20200016841F08051016041F215
:100810000400C4F20200016801600168016001681F
:1008200041F48061016001684FF6FF72C9F6C3723E
:100830001140016001680022C4F2310211430160DD
:1008400041F22C00C4F2020001684FF20002CBF624
:10085000FE7211400160016840F24962C0F201027B
:100860001143016041F20000C4F20200016841F04E
:1008700080610160FFE741F20000C4F202000068FD
:100880000001002801D4FFE7F5E741F20000C4F2BF
:100890000200016841F080710160FFE741F2000051
:1008A000C4F2020000688001002801D4FFE7F5E7E8
:1008B00047F20000C4F20000016841F48031016099
:1008C000FFE747F20400C4F200000068C0030028FC
:1008D00001D4FFE7F5E747F20000C4F20000016829
:1008E00041F400310160FFE747F20400C4F2000068
:1008F00000688003002801D4FFE7F5E741F2040017
:10090000C4F20200016821F003010160016841F0B6
:1009100002010160FFE741F20400C4F20200006836
:1009200000F00C00082801D0FFE7F4E704B070479E
:1009300080B5FFF717FF80BD80B582B040F20000A0
:10094000C2F20000006844F6D351C1F26201A0FB7C
:100950000101890901900846FFF75EFC002802D0DA
:10096000FFE7FFE7FEE74FF0FF300021FFF7FEFC57
:1009700002B080BD02E008C8121F08C1002AFAD1E7
:1009800070477047002001E001C1121F002AFBD10F
:1009900070470000B80900080000002008000000AF
:1009A00074090008C00900080800002008080000B9
:1009B00084090008000000000095BA0A0000000049
:04000005080001A14D
:00000001FF
